{
  "transactions": [
    {
      "hash": "0xbdb3d92217454f07e3cd1eb81860cbb34c072d8bcf221e15877f3b254fe50999",
      "transactionType": "CALL",
      "contractName": null,
      "contractAddress": "0x779877A7B0D9E8603169DdbD7836e478b4624789",
      "function": "transferAndCall(address,uint256,bytes)",
      "arguments": [
        "0x8103B0A8A00be2DDC778e6e7eaa21791Cd364625",
        "1000000000000000000",
        "0x0000000000000000000000000000000000000000000000000000000000002c5d"
      ],
      "transaction": {
        "type": "0x02",
        "from": "0xcca8f0cd5b870dd7de3942f06b4b72c71504cfbc",
        "to": "0x779877a7b0d9e8603169ddbd7836e478b4624789",
        "gas": "0x1b43f",
        "value": "0x0",
        "data": "0x4000aea00000000000000000000000008103b0a8a00be2ddc778e6e7eaa21791cd3646250000000000000000000000000000000000000000000000000de0b6b3a7640000000000000000000000000000000000000000000000000000000000000000006000000000000000000000000000000000000000000000000000000000000000200000000000000000000000000000000000000000000000000000000000002c5d",
        "nonce": "0x61",
        "accessList": []
      },
      "additionalContracts": [],
      "isFixedGasLimit": false
    }
  ],
  "receipts": [
    {
      "transactionHash": "0xbdb3d92217454f07e3cd1eb81860cbb34c072d8bcf221e15877f3b254fe50999",
      "transactionIndex": "0x2",
      "blockHash": "0xcd0c5c7316e2288227a1a67cd98819a225b06a1e75676f3ac7f1de36c6b829c4",
      "blockNumber": "0x57ed7f",
      "from": "0xCCa8F0cD5b870DD7De3942F06B4b72c71504cfBC",
      "to": "0x779877A7B0D9E8603169DdbD7836e478b4624789",
      "cumulativeGasUsed": "0x234ac",
      "gasUsed": "0x12a4a",
      "contractAddress": null,
      "logs": [
        {
          "address": "0x779877A7B0D9E8603169DdbD7836e478b4624789",
          "topics": [
            "0xddf252ad1be2c89b69c2b068fc378daa952ba7f163c4a11628f55a4df523b3ef",
            "0x000000000000000000000000cca8f0cd5b870dd7de3942f06b4b72c71504cfbc",
            "0x0000000000000000000000008103b0a8a00be2ddc778e6e7eaa21791cd364625"
          ],
          "data": "0x0000000000000000000000000000000000000000000000000de0b6b3a7640000",
          "blockHash": "0xcd0c5c7316e2288227a1a67cd98819a225b06a1e75676f3ac7f1de36c6b829c4",
          "blockNumber": "0x57ed7f",
          "transactionHash": "0xbdb3d92217454f07e3cd1eb81860cbb34c072d8bcf221e15877f3b254fe50999",
          "transactionIndex": "0x2",
          "logIndex": "0x2",
          "removed": false
        },
        {
          "address": "0x779877A7B0D9E8603169DdbD7836e478b4624789",
          "topics": [
            "0xe19260aff97b920c7df27010903aeb9c8d2be5d310a2c67824cf3f15396e4c16",
            "0x000000000000000000000000cca8f0cd5b870dd7de3942f06b4b72c71504cfbc",
            "0x0000000000000000000000008103b0a8a00be2ddc778e6e7eaa21791cd364625"
          ],
          "data": "0x0000000000000000000000000000000000000000000000000de0b6b3a7640000000000000000000000000000000000000000000000000000000000000000004000000000000000000000000000000000000000000000000000000000000000200000000000000000000000000000000000000000000000000000000000002c5d",
          "blockHash": "0xcd0c5c7316e2288227a1a67cd98819a225b06a1e75676f3ac7f1de36c6b829c4",
          "blockNumber": "0x57ed7f",
          "transactionHash": "0xbdb3d92217454f07e3cd1eb81860cbb34c072d8bcf221e15877f3b254fe50999",
          "transactionIndex": "0x2",
          "logIndex": "0x3",
          "removed": false
        },
        {
          "address": "0x8103B0A8A00be2DDC778e6e7eaa21791Cd364625",
          "topics": [
            "0xd39ec07f4e209f627a4c427971473820dc129761ba28de8906bd56f57101d4f8",
            "0x0000000000000000000000000000000000000000000000000000000000002c5d"
          ],
          "data": "0x00000000000000000000000000000000000000000000000000000000000000000000000000000000000000000000000000000000000000000de0b6b3a7640000",
          "blockHash": "0xcd0c5c7316e2288227a1a67cd98819a225b06a1e75676f3ac7f1de36c6b829c4",
          "blockNumber": "0x57ed7f",
          "transactionHash": "0xbdb3d92217454f07e3cd1eb81860cbb34c072d8bcf221e15877f3b254fe50999",
          "transactionIndex": "0x2",
          "logIndex": "0x4",
          "removed": false
        }
      ],
      "status": "0x1",
      "logsBloom": "0x0000001400001000000000000000000000000000000000020000000002000000000001000000800000000000000000000000000000000000000000100000000000000000000000000000000800000000000000000000000000002000000000000000000000000000000000000000000000000000400000000000001000000000000000000c000020000000040000800010000020000000000000000000000000000000000001000000000000000000000000000000000000000400000000000000000002000000000000000000000000000000000000000100000000000000000000000000000000000000000000000010000000000000000000000000000000",
      "type": "0x2",
      "effectiveGasPrice": "0xb2d05e18"
    }
  ],
  "libraries": [],
  "pending": [],
  "returns": {},
  "timestamp": 1713902790,
  "chain": 11155111,
  "commit": "a366337"
}